{
	"hospital.sol": {
		"PatientMedicalRecords": {
			"abi": [
				{
					"anonymous": false,
					"inputs": [
						{
							"indexed": true,
							"internalType": "uint256",
							"name": "recordId",
							"type": "uint256"
						},
						{
							"indexed": true,
							"internalType": "address",
							"name": "provider",
							"type": "address"
						}
					],
					"name": "EncryptedKeyUpdated",
					"type": "event"
				},
				{
					"anonymous": false,
					"inputs": [
						{
							"indexed": true,
							"internalType": "uint256",
							"name": "recordId",
							"type": "uint256"
						},
						{
							"indexed": true,
							"internalType": "address",
							"name": "patient",
							"type": "address"
						},
						{
							"indexed": true,
							"internalType": "address",
							"name": "provider",
							"type": "address"
						}
					],
					"name": "ProviderAuthorized",
					"type": "event"
				},
				{
					"anonymous": false,
					"inputs": [
						{
							"indexed": true,
							"internalType": "uint256",
							"name": "recordId",
							"type": "uint256"
						},
						{
							"indexed": true,
							"internalType": "address",
							"name": "patient",
							"type": "address"
						},
						{
							"indexed": true,
							"internalType": "address",
							"name": "provider",
							"type": "address"
						}
					],
					"name": "ProviderRevoked",
					"type": "event"
				},
				{
					"anonymous": false,
					"inputs": [
						{
							"indexed": true,
							"internalType": "uint256",
							"name": "recordId",
							"type": "uint256"
						},
						{
							"indexed": true,
							"internalType": "address",
							"name": "patient",
							"type": "address"
						},
						{
							"indexed": false,
							"internalType": "string",
							"name": "cid",
							"type": "string"
						},
						{
							"indexed": false,
							"internalType": "uint256",
							"name": "timestamp",
							"type": "uint256"
						}
					],
					"name": "RecordCreated",
					"type": "event"
				},
				{
					"anonymous": false,
					"inputs": [
						{
							"indexed": true,
							"internalType": "uint256",
							"name": "recordId",
							"type": "uint256"
						},
						{
							"indexed": true,
							"internalType": "address",
							"name": "patient",
							"type": "address"
						}
					],
					"name": "RecordDeleted",
					"type": "event"
				},
				{
					"inputs": [
						{
							"internalType": "address",
							"name": "",
							"type": "address"
						},
						{
							"internalType": "uint256",
							"name": "",
							"type": "uint256"
						}
					],
					"name": "patientRecords",
					"outputs": [
						{
							"internalType": "uint256",
							"name": "",
							"type": "uint256"
						}
					],
					"stateMutability": "view",
					"type": "function"
				},
				{
					"inputs": [
						{
							"internalType": "uint256",
							"name": "",
							"type": "uint256"
						},
						{
							"internalType": "address",
							"name": "",
							"type": "address"
						}
					],
					"name": "providerEncryptedKeys",
					"outputs": [
						{
							"internalType": "bytes",
							"name": "",
							"type": "bytes"
						}
					],
					"stateMutability": "view",
					"type": "function"
				},
				{
					"inputs": [
						{
							"internalType": "uint256",
							"name": "",
							"type": "uint256"
						}
					],
					"name": "records",
					"outputs": [
						{
							"internalType": "uint256",
							"name": "id",
							"type": "uint256"
						},
						{
							"internalType": "string",
							"name": "cid",
							"type": "string"
						},
						{
							"internalType": "bytes32",
							"name": "contentHash",
							"type": "bytes32"
						},
						{
							"internalType": "uint256",
							"name": "timestamp",
							"type": "uint256"
						},
						{
							"internalType": "address",
							"name": "creator",
							"type": "address"
						},
						{
							"internalType": "bool",
							"name": "exists",
							"type": "bool"
						}
					],
					"stateMutability": "view",
					"type": "function"
				}
			],
			"devdoc": {
				"kind": "dev",
				"methods": {},
				"version": 1
			},
			"evm": {
				"assembly": "    /* \"hospital.sol\":58:1185  contract PatientMedicalRecords {... */\n  mstore(0x40, 0x80)\n  callvalue\n  dup1\n  iszero\n  tag_1\n  jumpi\n  revert(0x00, 0x00)\ntag_1:\n  pop\n  dataSize(sub_0)\n  dup1\n  dataOffset(sub_0)\n  0x00\n  codecopy\n  0x00\n  return\nstop\n\nsub_0: assembly {\n        /* \"hospital.sol\":58:1185  contract PatientMedicalRecords {... */\n      mstore(0x40, 0x80)\n      callvalue\n      dup1\n      iszero\n      tag_1\n      jumpi\n      revert(0x00, 0x00)\n    tag_1:\n      pop\n      jumpi(tag_2, lt(calldatasize, 0x04))\n      shr(0xe0, calldataload(0x00))\n      dup1\n      0x2175273e\n      eq\n      tag_3\n      jumpi\n      dup1\n      0x34461067\n      eq\n      tag_4\n      jumpi\n      dup1\n      0x94f0df61\n      eq\n      tag_5\n      jumpi\n    tag_2:\n      revert(0x00, 0x00)\n        /* \"hospital.sol\":352:426  mapping(uint256 => mapping(address => bytes)) public providerEncryptedKeys */\n    tag_3:\n      tag_6\n      0x04\n      dup1\n      calldatasize\n      sub\n      dup2\n      add\n      swap1\n      tag_7\n      swap2\n      swap1\n      tag_8\n      jump\t// in\n    tag_7:\n      tag_9\n      jump\t// in\n    tag_6:\n      mload(0x40)\n      tag_10\n      swap2\n      swap1\n      tag_11\n      jump\t// in\n    tag_10:\n      mload(0x40)\n      dup1\n      swap2\n      sub\n      swap1\n      return\n        /* \"hospital.sol\":433:474  mapping(uint256 => Record) public records */\n    tag_4:\n      tag_12\n      0x04\n      dup1\n      calldatasize\n      sub\n      dup2\n      add\n      swap1\n      tag_13\n      swap2\n      swap1\n      tag_14\n      jump\t// in\n    tag_13:\n      tag_15\n      jump\t// in\n    tag_12:\n      mload(0x40)\n      tag_16\n      swap7\n      swap6\n      swap5\n      swap4\n      swap3\n      swap2\n      swap1\n      tag_17\n      jump\t// in\n    tag_16:\n      mload(0x40)\n      dup1\n      swap2\n      sub\n      swap1\n      return\n        /* \"hospital.sol\":480:531  mapping(address => uint256[]) public patientRecords */\n    tag_5:\n      tag_18\n      0x04\n      dup1\n      calldatasize\n      sub\n      dup2\n      add\n      swap1\n      tag_19\n      swap2\n      swap1\n      tag_20\n      jump\t// in\n    tag_19:\n      tag_21\n      jump\t// in\n    tag_18:\n      mload(0x40)\n      tag_22\n      swap2\n      swap1\n      tag_23\n      jump\t// in\n    tag_22:\n      mload(0x40)\n      dup1\n      swap2\n      sub\n      swap1\n      return\n        /* \"hospital.sol\":352:426  mapping(uint256 => mapping(address => bytes)) public providerEncryptedKeys */\n    tag_9:\n      mstore(0x20, 0x00)\n      dup2\n      0x00\n      mstore\n      mstore(0x20, keccak256(0x00, 0x40))\n      dup1\n      0x00\n      mstore\n      keccak256(0x00, 0x40)\n      0x00\n      swap2\n      pop\n      swap2\n      pop\n      pop\n      dup1\n      sload\n      tag_24\n      swap1\n      tag_25\n      jump\t// in\n    tag_24:\n      dup1\n      0x1f\n      add\n      0x20\n      dup1\n      swap2\n      div\n      mul\n      0x20\n      add\n      mload(0x40)\n      swap1\n      dup2\n      add\n      0x40\n      mstore\n      dup1\n      swap3\n      swap2\n      swap1\n      dup2\n      dup2\n      mstore\n      0x20\n      add\n      dup3\n      dup1\n      sload\n      tag_26\n      swap1\n      tag_25\n      jump\t// in\n    tag_26:\n      dup1\n      iszero\n      tag_27\n      jumpi\n      dup1\n      0x1f\n      lt\n      tag_28\n      jumpi\n      0x0100\n      dup1\n      dup4\n      sload\n      div\n      mul\n      dup4\n      mstore\n      swap2\n      0x20\n      add\n      swap2\n      jump(tag_27)\n    tag_28:\n      dup3\n      add\n      swap2\n      swap1\n      0x00\n      mstore\n      keccak256(0x00, 0x20)\n      swap1\n    tag_29:\n      dup2\n      sload\n      dup2\n      mstore\n      swap1\n      0x01\n      add\n      swap1\n      0x20\n      add\n      dup1\n      dup4\n      gt\n      tag_29\n      jumpi\n      dup3\n      swap1\n      sub\n      0x1f\n      and\n      dup3\n      add\n      swap2\n    tag_27:\n      pop\n      pop\n      pop\n      pop\n      pop\n      dup2\n      jump\t// out\n        /* \"hospital.sol\":433:474  mapping(uint256 => Record) public records */\n    tag_15:\n      mstore(0x20, 0x01)\n      dup1\n      0x00\n      mstore\n      keccak256(0x00, 0x40)\n      0x00\n      swap2\n      pop\n      swap1\n      pop\n      dup1\n      0x00\n      add\n      sload\n      swap1\n      dup1\n      0x01\n      add\n      dup1\n      sload\n      tag_30\n      swap1\n      tag_25\n      jump\t// in\n    tag_30:\n      dup1\n      0x1f\n      add\n      0x20\n      dup1\n      swap2\n      div\n      mul\n      0x20\n      add\n      mload(0x40)\n      swap1\n      dup2\n      add\n      0x40\n      mstore\n      dup1\n      swap3\n      swap2\n      swap1\n      dup2\n      dup2\n      mstore\n      0x20\n      add\n      dup3\n      dup1\n      sload\n      tag_31\n      swap1\n      tag_25\n      jump\t// in\n    tag_31:\n      dup1\n      iszero\n      tag_32\n      jumpi\n      dup1\n      0x1f\n      lt\n      tag_33\n      jumpi\n      0x0100\n      dup1\n      dup4\n      sload\n      div\n      mul\n      dup4\n      mstore\n      swap2\n      0x20\n      add\n      swap2\n      jump(tag_32)\n    tag_33:\n      dup3\n      add\n      swap2\n      swap1\n      0x00\n      mstore\n      keccak256(0x00, 0x20)\n      swap1\n    tag_34:\n      dup2\n      sload\n      dup2\n      mstore\n      swap1\n      0x01\n      add\n      swap1\n      0x20\n      add\n      dup1\n      dup4\n      gt\n      tag_34\n      jumpi\n      dup3\n      swap1\n      sub\n      0x1f\n      and\n      dup3\n      add\n      swap2\n    tag_32:\n      pop\n      pop\n      pop\n      pop\n      pop\n      swap1\n      dup1\n      0x02\n      add\n      sload\n      swap1\n      dup1\n      0x03\n      add\n      sload\n      swap1\n      dup1\n      0x04\n      add\n      0x00\n      swap1\n      sload\n      swap1\n      0x0100\n      exp\n      swap1\n      div\n      0xffffffffffffffffffffffffffffffffffffffff\n      and\n      swap1\n      dup1\n      0x04\n      add\n      0x14\n      swap1\n      sload\n      swap1\n      0x0100\n      exp\n      swap1\n      div\n      0xff\n      and\n      swap1\n      pop\n      dup7\n      jump\t// out\n        /* \"hospital.sol\":480:531  mapping(address => uint256[]) public patientRecords */\n    tag_21:\n      mstore(0x20, 0x02)\n      dup2\n      0x00\n      mstore\n      keccak256(0x00, 0x40)\n      dup2\n      dup2\n      sload\n      dup2\n      lt\n      tag_35\n      jumpi\n      0x00\n      dup1\n      revert\n    tag_35:\n      swap1\n      0x00\n      mstore\n      keccak256(0x00, 0x20)\n      add\n      0x00\n      swap2\n      pop\n      swap2\n      pop\n      pop\n      sload\n      dup2\n      jump\t// out\n        /* \"#utility.yul\":88:205   */\n    tag_38:\n        /* \"#utility.yul\":197:198   */\n      0x00\n        /* \"#utility.yul\":194:195   */\n      0x00\n        /* \"#utility.yul\":187:199   */\n      revert\n        /* \"#utility.yul\":334:411   */\n    tag_40:\n        /* \"#utility.yul\":371:378   */\n      0x00\n        /* \"#utility.yul\":400:405   */\n      dup2\n        /* \"#utility.yul\":389:405   */\n      swap1\n      pop\n        /* \"#utility.yul\":334:411   */\n      swap2\n      swap1\n      pop\n      jump\t// out\n        /* \"#utility.yul\":417:539   */\n    tag_41:\n        /* \"#utility.yul\":490:514   */\n      tag_68\n        /* \"#utility.yul\":508:513   */\n      dup2\n        /* \"#utility.yul\":490:514   */\n      tag_40\n      jump\t// in\n    tag_68:\n        /* \"#utility.yul\":483:488   */\n      dup2\n        /* \"#utility.yul\":480:515   */\n      eq\n        /* \"#utility.yul\":470:533   */\n      tag_69\n      jumpi\n        /* \"#utility.yul\":529:530   */\n      0x00\n        /* \"#utility.yul\":526:527   */\n      0x00\n        /* \"#utility.yul\":519:531   */\n      revert\n        /* \"#utility.yul\":470:533   */\n    tag_69:\n        /* \"#utility.yul\":417:539   */\n      pop\n      jump\t// out\n        /* \"#utility.yul\":545:684   */\n    tag_42:\n        /* \"#utility.yul\":591:596   */\n      0x00\n        /* \"#utility.yul\":629:635   */\n      dup2\n        /* \"#utility.yul\":616:636   */\n      calldataload\n        /* \"#utility.yul\":607:636   */\n      swap1\n      pop\n        /* \"#utility.yul\":645:678   */\n      tag_71\n        /* \"#utility.yul\":672:677   */\n      dup2\n        /* \"#utility.yul\":645:678   */\n      tag_41\n      jump\t// in\n    tag_71:\n        /* \"#utility.yul\":545:684   */\n      swap3\n      swap2\n      pop\n      pop\n      jump\t// out\n        /* \"#utility.yul\":690:816   */\n    tag_43:\n        /* \"#utility.yul\":727:734   */\n      0x00\n        /* \"#utility.yul\":767:809   */\n      0xffffffffffffffffffffffffffffffffffffffff\n        /* \"#utility.yul\":760:765   */\n      dup3\n        /* \"#utility.yul\":756:810   */\n      and\n        /* \"#utility.yul\":745:810   */\n      swap1\n      pop\n        /* \"#utility.yul\":690:816   */\n      swap2\n      swap1\n      pop\n      jump\t// out\n        /* \"#utility.yul\":822:918   */\n    tag_44:\n        /* \"#utility.yul\":859:866   */\n      0x00\n        /* \"#utility.yul\":888:912   */\n      tag_74\n        /* \"#utility.yul\":906:911   */\n      dup3\n        /* \"#utility.yul\":888:912   */\n      tag_43\n      jump\t// in\n    tag_74:\n        /* \"#utility.yul\":877:912   */\n      swap1\n      pop\n        /* \"#utility.yul\":822:918   */\n      swap2\n      swap1\n      pop\n      jump\t// out\n        /* \"#utility.yul\":924:1046   */\n    tag_45:\n        /* \"#utility.yul\":997:1021   */\n      tag_76\n        /* \"#utility.yul\":1015:1020   */\n      dup2\n        /* \"#utility.yul\":997:1021   */\n      tag_44\n      jump\t// in\n    tag_76:\n        /* \"#utility.yul\":990:995   */\n      dup2\n        /* \"#utility.yul\":987:1022   */\n      eq\n        /* \"#utility.yul\":977:1040   */\n      tag_77\n      jumpi\n        /* \"#utility.yul\":1036:1037   */\n      0x00\n        /* \"#utility.yul\":1033:1034   */\n      0x00\n        /* \"#utility.yul\":1026:1038   */\n      revert\n        /* \"#utility.yul\":977:1040   */\n    tag_77:\n        /* \"#utility.yul\":924:1046   */\n      pop\n      jump\t// out\n        /* \"#utility.yul\":1052:1191   */\n    tag_46:\n        /* \"#utility.yul\":1098:1103   */\n      0x00\n        /* \"#utility.yul\":1136:1142   */\n      dup2\n        /* \"#utility.yul\":1123:1143   */\n      calldataload\n        /* \"#utility.yul\":1114:1143   */\n      swap1\n      pop\n        /* \"#utility.yul\":1152:1185   */\n      tag_79\n        /* \"#utility.yul\":1179:1184   */\n      dup2\n        /* \"#utility.yul\":1152:1185   */\n      tag_45\n      jump\t// in\n    tag_79:\n        /* \"#utility.yul\":1052:1191   */\n      swap3\n      swap2\n      pop\n      pop\n      jump\t// out\n        /* \"#utility.yul\":1197:1671   */\n    tag_8:\n        /* \"#utility.yul\":1265:1271   */\n      0x00\n        /* \"#utility.yul\":1273:1279   */\n      0x00\n        /* \"#utility.yul\":1322:1324   */\n      0x40\n        /* \"#utility.yul\":1310:1319   */\n      dup4\n        /* \"#utility.yul\":1301:1308   */\n      dup6\n        /* \"#utility.yul\":1297:1320   */\n      sub\n        /* \"#utility.yul\":1293:1325   */\n      slt\n        /* \"#utility.yul\":1290:1409   */\n      iszero\n      tag_81\n      jumpi\n        /* \"#utility.yul\":1328:1407   */\n      tag_82\n      tag_38\n      jump\t// in\n    tag_82:\n        /* \"#utility.yul\":1290:1409   */\n    tag_81:\n        /* \"#utility.yul\":1448:1449   */\n      0x00\n        /* \"#utility.yul\":1473:1526   */\n      tag_83\n        /* \"#utility.yul\":1518:1525   */\n      dup6\n        /* \"#utility.yul\":1509:1515   */\n      dup3\n        /* \"#utility.yul\":1498:1507   */\n      dup7\n        /* \"#utility.yul\":1494:1516   */\n      add\n        /* \"#utility.yul\":1473:1526   */\n      tag_42\n      jump\t// in\n    tag_83:\n        /* \"#utility.yul\":1463:1526   */\n      swap3\n      pop\n        /* \"#utility.yul\":1419:1536   */\n      pop\n        /* \"#utility.yul\":1575:1577   */\n      0x20\n        /* \"#utility.yul\":1601:1654   */\n      tag_84\n        /* \"#utility.yul\":1646:1653   */\n      dup6\n        /* \"#utility.yul\":1637:1643   */\n      dup3\n        /* \"#utility.yul\":1626:1635   */\n      dup7\n        /* \"#utility.yul\":1622:1644   */\n      add\n        /* \"#utility.yul\":1601:1654   */\n      tag_46\n      jump\t// in\n    tag_84:\n        /* \"#utility.yul\":1591:1654   */\n      swap2\n      pop\n        /* \"#utility.yul\":1546:1664   */\n      pop\n        /* \"#utility.yul\":1197:1671   */\n      swap3\n      pop\n      swap3\n      swap1\n      pop\n      jump\t// out\n        /* \"#utility.yul\":1677:1775   */\n    tag_47:\n        /* \"#utility.yul\":1728:1734   */\n      0x00\n        /* \"#utility.yul\":1762:1767   */\n      dup2\n        /* \"#utility.yul\":1756:1768   */\n      mload\n        /* \"#utility.yul\":1746:1768   */\n      swap1\n      pop\n        /* \"#utility.yul\":1677:1775   */\n      swap2\n      swap1\n      pop\n      jump\t// out\n        /* \"#utility.yul\":1781:1949   */\n    tag_48:\n        /* \"#utility.yul\":1864:1875   */\n      0x00\n        /* \"#utility.yul\":1898:1904   */\n      dup3\n        /* \"#utility.yul\":1893:1896   */\n      dup3\n        /* \"#utility.yul\":1886:1905   */\n      mstore\n        /* \"#utility.yul\":1938:1942   */\n      0x20\n        /* \"#utility.yul\":1933:1936   */\n      dup3\n        /* \"#utility.yul\":1929:1943   */\n      add\n        /* \"#utility.yul\":1914:1943   */\n      swap1\n      pop\n        /* \"#utility.yul\":1781:1949   */\n      swap3\n      swap2\n      pop\n      pop\n      jump\t// out\n        /* \"#utility.yul\":1955:2094   */\n    tag_49:\n        /* \"#utility.yul\":2044:2050   */\n      dup3\n        /* \"#utility.yul\":2039:2042   */\n      dup2\n        /* \"#utility.yul\":2034:2037   */\n      dup4\n        /* \"#utility.yul\":2028:2051   */\n      mcopy\n        /* \"#utility.yul\":2085:2086   */\n      0x00\n        /* \"#utility.yul\":2076:2082   */\n      dup4\n        /* \"#utility.yul\":2071:2074   */\n      dup4\n        /* \"#utility.yul\":2067:2083   */\n      add\n        /* \"#utility.yul\":2060:2087   */\n      mstore\n        /* \"#utility.yul\":1955:2094   */\n      pop\n      pop\n      pop\n      jump\t// out\n        /* \"#utility.yul\":2100:2202   */\n    tag_50:\n        /* \"#utility.yul\":2141:2147   */\n      0x00\n        /* \"#utility.yul\":2192:2194   */\n      0x1f\n        /* \"#utility.yul\":2188:2195   */\n      not\n        /* \"#utility.yul\":2183:2185   */\n      0x1f\n        /* \"#utility.yul\":2176:2181   */\n      dup4\n        /* \"#utility.yul\":2172:2186   */\n      add\n        /* \"#utility.yul\":2168:2196   */\n      and\n        /* \"#utility.yul\":2158:2196   */\n      swap1\n      pop\n        /* \"#utility.yul\":2100:2202   */\n      swap2\n      swap1\n      pop\n      jump\t// out\n        /* \"#utility.yul\":2208:2581   */\n    tag_51:\n        /* \"#utility.yul\":2294:2297   */\n      0x00\n        /* \"#utility.yul\":2322:2360   */\n      tag_90\n        /* \"#utility.yul\":2354:2359   */\n      dup3\n        /* \"#utility.yul\":2322:2360   */\n      tag_47\n      jump\t// in\n    tag_90:\n        /* \"#utility.yul\":2376:2446   */\n      tag_91\n        /* \"#utility.yul\":2439:2445   */\n      dup2\n        /* \"#utility.yul\":2434:2437   */\n      dup6\n        /* \"#utility.yul\":2376:2446   */\n      tag_48\n      jump\t// in\n    tag_91:\n        /* \"#utility.yul\":2369:2446   */\n      swap4\n      pop\n        /* \"#utility.yul\":2455:2520   */\n      tag_92\n        /* \"#utility.yul\":2513:2519   */\n      dup2\n        /* \"#utility.yul\":2508:2511   */\n      dup6\n        /* \"#utility.yul\":2501:2505   */\n      0x20\n        /* \"#utility.yul\":2494:2499   */\n      dup7\n        /* \"#utility.yul\":2490:2506   */\n      add\n        /* \"#utility.yul\":2455:2520   */\n      tag_49\n      jump\t// in\n    tag_92:\n        /* \"#utility.yul\":2545:2574   */\n      tag_93\n        /* \"#utility.yul\":2567:2573   */\n      dup2\n        /* \"#utility.yul\":2545:2574   */\n      tag_50\n      jump\t// in\n    tag_93:\n        /* \"#utility.yul\":2540:2543   */\n      dup5\n        /* \"#utility.yul\":2536:2575   */\n      add\n        /* \"#utility.yul\":2529:2575   */\n      swap2\n      pop\n        /* \"#utility.yul\":2298:2581   */\n      pop\n        /* \"#utility.yul\":2208:2581   */\n      swap3\n      swap2\n      pop\n      pop\n      jump\t// out\n        /* \"#utility.yul\":2587:2896   */\n    tag_11:\n        /* \"#utility.yul\":2698:2702   */\n      0x00\n        /* \"#utility.yul\":2736:2738   */\n      0x20\n        /* \"#utility.yul\":2725:2734   */\n      dup3\n        /* \"#utility.yul\":2721:2739   */\n      add\n        /* \"#utility.yul\":2713:2739   */\n      swap1\n      pop\n        /* \"#utility.yul\":2785:2794   */\n      dup2\n        /* \"#utility.yul\":2779:2783   */\n      dup2\n        /* \"#utility.yul\":2775:2795   */\n      sub\n        /* \"#utility.yul\":2771:2772   */\n      0x00\n        /* \"#utility.yul\":2760:2769   */\n      dup4\n        /* \"#utility.yul\":2756:2773   */\n      add\n        /* \"#utility.yul\":2749:2796   */\n      mstore\n        /* \"#utility.yul\":2813:2889   */\n      tag_95\n        /* \"#utility.yul\":2884:2888   */\n      dup2\n        /* \"#utility.yul\":2875:2881   */\n      dup5\n        /* \"#utility.yul\":2813:2889   */\n      tag_51\n      jump\t// in\n    tag_95:\n        /* \"#utility.yul\":2805:2889   */\n      swap1\n      pop\n        /* \"#utility.yul\":2587:2896   */\n      swap3\n      swap2\n      pop\n      pop\n      jump\t// out\n        /* \"#utility.yul\":2902:3231   */\n    tag_14:\n        /* \"#utility.yul\":2961:2967   */\n      0x00\n        /* \"#utility.yul\":3010:3012   */\n      0x20\n        /* \"#utility.yul\":2998:3007   */\n      dup3\n        /* \"#utility.yul\":2989:2996   */\n      dup5\n        /* \"#utility.yul\":2985:3008   */\n      sub\n        /* \"#utility.yul\":2981:3013   */\n      slt\n        /* \"#utility.yul\":2978:3097   */\n      iszero\n      tag_97\n      jumpi\n        /* \"#utility.yul\":3016:3095   */\n      tag_98\n      tag_38\n      jump\t// in\n    tag_98:\n        /* \"#utility.yul\":2978:3097   */\n    tag_97:\n        /* \"#utility.yul\":3136:3137   */\n      0x00\n        /* \"#utility.yul\":3161:3214   */\n      tag_99\n        /* \"#utility.yul\":3206:3213   */\n      dup5\n        /* \"#utility.yul\":3197:3203   */\n      dup3\n        /* \"#utility.yul\":3186:3195   */\n      dup6\n        /* \"#utility.yul\":3182:3204   */\n      add\n        /* \"#utility.yul\":3161:3214   */\n      tag_42\n      jump\t// in\n    tag_99:\n        /* \"#utility.yul\":3151:3214   */\n      swap2\n      pop\n        /* \"#utility.yul\":3107:3224   */\n      pop\n        /* \"#utility.yul\":2902:3231   */\n      swap3\n      swap2\n      pop\n      pop\n      jump\t// out\n        /* \"#utility.yul\":3237:3355   */\n    tag_52:\n        /* \"#utility.yul\":3324:3348   */\n      tag_101\n        /* \"#utility.yul\":3342:3347   */\n      dup2\n        /* \"#utility.yul\":3324:3348   */\n      tag_40\n      jump\t// in\n    tag_101:\n        /* \"#utility.yul\":3319:3322   */\n      dup3\n        /* \"#utility.yul\":3312:3349   */\n      mstore\n        /* \"#utility.yul\":3237:3355   */\n      pop\n      pop\n      jump\t// out\n        /* \"#utility.yul\":3361:3460   */\n    tag_53:\n        /* \"#utility.yul\":3413:3419   */\n      0x00\n        /* \"#utility.yul\":3447:3452   */\n      dup2\n        /* \"#utility.yul\":3441:3453   */\n      mload\n        /* \"#utility.yul\":3431:3453   */\n      swap1\n      pop\n        /* \"#utility.yul\":3361:3460   */\n      swap2\n      swap1\n      pop\n      jump\t// out\n        /* \"#utility.yul\":3466:3635   */\n    tag_54:\n        /* \"#utility.yul\":3550:3561   */\n      0x00\n        /* \"#utility.yul\":3584:3590   */\n      dup3\n        /* \"#utility.yul\":3579:3582   */\n      dup3\n        /* \"#utility.yul\":3572:3591   */\n      mstore\n        /* \"#utility.yul\":3624:3628   */\n      0x20\n        /* \"#utility.yul\":3619:3622   */\n      dup3\n        /* \"#utility.yul\":3615:3629   */\n      add\n        /* \"#utility.yul\":3600:3629   */\n      swap1\n      pop\n        /* \"#utility.yul\":3466:3635   */\n      swap3\n      swap2\n      pop\n      pop\n      jump\t// out\n        /* \"#utility.yul\":3641:4018   */\n    tag_55:\n        /* \"#utility.yul\":3729:3732   */\n      0x00\n        /* \"#utility.yul\":3757:3796   */\n      tag_105\n        /* \"#utility.yul\":3790:3795   */\n      dup3\n        /* \"#utility.yul\":3757:3796   */\n      tag_53\n      jump\t// in\n    tag_105:\n        /* \"#utility.yul\":3812:3883   */\n      tag_106\n        /* \"#utility.yul\":3876:3882   */\n      dup2\n        /* \"#utility.yul\":3871:3874   */\n      dup6\n        /* \"#utility.yul\":3812:3883   */\n      tag_54\n      jump\t// in\n    tag_106:\n        /* \"#utility.yul\":3805:3883   */\n      swap4\n      pop\n        /* \"#utility.yul\":3892:3957   */\n      tag_107\n        /* \"#utility.yul\":3950:3956   */\n      dup2\n        /* \"#utility.yul\":3945:3948   */\n      dup6\n        /* \"#utility.yul\":3938:3942   */\n      0x20\n        /* \"#utility.yul\":3931:3936   */\n      dup7\n        /* \"#utility.yul\":3927:3943   */\n      add\n        /* \"#utility.yul\":3892:3957   */\n      tag_49\n      jump\t// in\n    tag_107:\n        /* \"#utility.yul\":3982:4011   */\n      tag_108\n        /* \"#utility.yul\":4004:4010   */\n      dup2\n        /* \"#utility.yul\":3982:4011   */\n      tag_50\n      jump\t// in\n    tag_108:\n        /* \"#utility.yul\":3977:3980   */\n      dup5\n        /* \"#utility.yul\":3973:4012   */\n      add\n        /* \"#utility.yul\":3966:4012   */\n      swap2\n      pop\n        /* \"#utility.yul\":3733:4018   */\n      pop\n        /* \"#utility.yul\":3641:4018   */\n      swap3\n      swap2\n      pop\n      pop\n      jump\t// out\n        /* \"#utility.yul\":4024:4101   */\n    tag_56:\n        /* \"#utility.yul\":4061:4068   */\n      0x00\n        /* \"#utility.yul\":4090:4095   */\n      dup2\n        /* \"#utility.yul\":4079:4095   */\n      swap1\n      pop\n        /* \"#utility.yul\":4024:4101   */\n      swap2\n      swap1\n      pop\n      jump\t// out\n        /* \"#utility.yul\":4107:4225   */\n    tag_57:\n        /* \"#utility.yul\":4194:4218   */\n      tag_111\n        /* \"#utility.yul\":4212:4217   */\n      dup2\n        /* \"#utility.yul\":4194:4218   */\n      tag_56\n      jump\t// in\n    tag_111:\n        /* \"#utility.yul\":4189:4192   */\n      dup3\n        /* \"#utility.yul\":4182:4219   */\n      mstore\n        /* \"#utility.yul\":4107:4225   */\n      pop\n      pop\n      jump\t// out\n        /* \"#utility.yul\":4231:4349   */\n    tag_58:\n        /* \"#utility.yul\":4318:4342   */\n      tag_113\n        /* \"#utility.yul\":4336:4341   */\n      dup2\n        /* \"#utility.yul\":4318:4342   */\n      tag_44\n      jump\t// in\n    tag_113:\n        /* \"#utility.yul\":4313:4316   */\n      dup3\n        /* \"#utility.yul\":4306:4343   */\n      mstore\n        /* \"#utility.yul\":4231:4349   */\n      pop\n      pop\n      jump\t// out\n        /* \"#utility.yul\":4355:4445   */\n    tag_59:\n        /* \"#utility.yul\":4389:4396   */\n      0x00\n        /* \"#utility.yul\":4432:4437   */\n      dup2\n        /* \"#utility.yul\":4425:4438   */\n      iszero\n        /* \"#utility.yul\":4418:4439   */\n      iszero\n        /* \"#utility.yul\":4407:4439   */\n      swap1\n      pop\n        /* \"#utility.yul\":4355:4445   */\n      swap2\n      swap1\n      pop\n      jump\t// out\n        /* \"#utility.yul\":4451:4560   */\n    tag_60:\n        /* \"#utility.yul\":4532:4553   */\n      tag_116\n        /* \"#utility.yul\":4547:4552   */\n      dup2\n        /* \"#utility.yul\":4532:4553   */\n      tag_59\n      jump\t// in\n    tag_116:\n        /* \"#utility.yul\":4527:4530   */\n      dup3\n        /* \"#utility.yul\":4520:4554   */\n      mstore\n        /* \"#utility.yul\":4451:4560   */\n      pop\n      pop\n      jump\t// out\n        /* \"#utility.yul\":4566:5420   */\n    tag_17:\n        /* \"#utility.yul\":4813:4817   */\n      0x00\n        /* \"#utility.yul\":4851:4854   */\n      0xc0\n        /* \"#utility.yul\":4840:4849   */\n      dup3\n        /* \"#utility.yul\":4836:4855   */\n      add\n        /* \"#utility.yul\":4828:4855   */\n      swap1\n      pop\n        /* \"#utility.yul\":4865:4936   */\n      tag_118\n        /* \"#utility.yul\":4933:4934   */\n      0x00\n        /* \"#utility.yul\":4922:4931   */\n      dup4\n        /* \"#utility.yul\":4918:4935   */\n      add\n        /* \"#utility.yul\":4909:4915   */\n      dup10\n        /* \"#utility.yul\":4865:4936   */\n      tag_52\n      jump\t// in\n    tag_118:\n        /* \"#utility.yul\":4983:4992   */\n      dup2\n        /* \"#utility.yul\":4977:4981   */\n      dup2\n        /* \"#utility.yul\":4973:4993   */\n      sub\n        /* \"#utility.yul\":4968:4970   */\n      0x20\n        /* \"#utility.yul\":4957:4966   */\n      dup4\n        /* \"#utility.yul\":4953:4971   */\n      add\n        /* \"#utility.yul\":4946:4994   */\n      mstore\n        /* \"#utility.yul\":5011:5089   */\n      tag_119\n        /* \"#utility.yul\":5084:5088   */\n      dup2\n        /* \"#utility.yul\":5075:5081   */\n      dup9\n        /* \"#utility.yul\":5011:5089   */\n      tag_55\n      jump\t// in\n    tag_119:\n        /* \"#utility.yul\":5003:5089   */\n      swap1\n      pop\n        /* \"#utility.yul\":5099:5171   */\n      tag_120\n        /* \"#utility.yul\":5167:5169   */\n      0x40\n        /* \"#utility.yul\":5156:5165   */\n      dup4\n        /* \"#utility.yul\":5152:5170   */\n      add\n        /* \"#utility.yul\":5143:5149   */\n      dup8\n        /* \"#utility.yul\":5099:5171   */\n      tag_57\n      jump\t// in\n    tag_120:\n        /* \"#utility.yul\":5181:5253   */\n      tag_121\n        /* \"#utility.yul\":5249:5251   */\n      0x60\n        /* \"#utility.yul\":5238:5247   */\n      dup4\n        /* \"#utility.yul\":5234:5252   */\n      add\n        /* \"#utility.yul\":5225:5231   */\n      dup7\n        /* \"#utility.yul\":5181:5253   */\n      tag_52\n      jump\t// in\n    tag_121:\n        /* \"#utility.yul\":5263:5336   */\n      tag_122\n        /* \"#utility.yul\":5331:5334   */\n      0x80\n        /* \"#utility.yul\":5320:5329   */\n      dup4\n        /* \"#utility.yul\":5316:5335   */\n      add\n        /* \"#utility.yul\":5307:5313   */\n      dup6\n        /* \"#utility.yul\":5263:5336   */\n      tag_58\n      jump\t// in\n    tag_122:\n        /* \"#utility.yul\":5346:5413   */\n      tag_123\n        /* \"#utility.yul\":5408:5411   */\n      0xa0\n        /* \"#utility.yul\":5397:5406   */\n      dup4\n        /* \"#utility.yul\":5393:5412   */\n      add\n        /* \"#utility.yul\":5384:5390   */\n      dup5\n        /* \"#utility.yul\":5346:5413   */\n      tag_60\n      jump\t// in\n    tag_123:\n        /* \"#utility.yul\":4566:5420   */\n      swap8\n      swap7\n      pop\n      pop\n      pop\n      pop\n      pop\n      pop\n      pop\n      jump\t// out\n        /* \"#utility.yul\":5426:5900   */\n    tag_20:\n        /* \"#utility.yul\":5494:5500   */\n      0x00\n        /* \"#utility.yul\":5502:5508   */\n      0x00\n        /* \"#utility.yul\":5551:5553   */\n      0x40\n        /* \"#utility.yul\":5539:5548   */\n      dup4\n        /* \"#utility.yul\":5530:5537   */\n      dup6\n        /* \"#utility.yul\":5526:5549   */\n      sub\n        /* \"#utility.yul\":5522:5554   */\n      slt\n        /* \"#utility.yul\":5519:5638   */\n      iszero\n      tag_125\n      jumpi\n        /* \"#utility.yul\":5557:5636   */\n      tag_126\n      tag_38\n      jump\t// in\n    tag_126:\n        /* \"#utility.yul\":5519:5638   */\n    tag_125:\n        /* \"#utility.yul\":5677:5678   */\n      0x00\n        /* \"#utility.yul\":5702:5755   */\n      tag_127\n        /* \"#utility.yul\":5747:5754   */\n      dup6\n        /* \"#utility.yul\":5738:5744   */\n      dup3\n        /* \"#utility.yul\":5727:5736   */\n      dup7\n        /* \"#utility.yul\":5723:5745   */\n      add\n        /* \"#utility.yul\":5702:5755   */\n      tag_46\n      jump\t// in\n    tag_127:\n        /* \"#utility.yul\":5692:5755   */\n      swap3\n      pop\n        /* \"#utility.yul\":5648:5765   */\n      pop\n        /* \"#utility.yul\":5804:5806   */\n      0x20\n        /* \"#utility.yul\":5830:5883   */\n      tag_128\n        /* \"#utility.yul\":5875:5882   */\n      dup6\n        /* \"#utility.yul\":5866:5872   */\n      dup3\n        /* \"#utility.yul\":5855:5864   */\n      dup7\n        /* \"#utility.yul\":5851:5873   */\n      add\n        /* \"#utility.yul\":5830:5883   */\n      tag_42\n      jump\t// in\n    tag_128:\n        /* \"#utility.yul\":5820:5883   */\n      swap2\n      pop\n        /* \"#utility.yul\":5775:5893   */\n      pop\n        /* \"#utility.yul\":5426:5900   */\n      swap3\n      pop\n      swap3\n      swap1\n      pop\n      jump\t// out\n        /* \"#utility.yul\":5906:6128   */\n    tag_23:\n        /* \"#utility.yul\":5999:6003   */\n      0x00\n        /* \"#utility.yul\":6037:6039   */\n      0x20\n        /* \"#utility.yul\":6026:6035   */\n      dup3\n        /* \"#utility.yul\":6022:6040   */\n      add\n        /* \"#utility.yul\":6014:6040   */\n      swap1\n      pop\n        /* \"#utility.yul\":6050:6121   */\n      tag_130\n        /* \"#utility.yul\":6118:6119   */\n      0x00\n        /* \"#utility.yul\":6107:6116   */\n      dup4\n        /* \"#utility.yul\":6103:6120   */\n      add\n        /* \"#utility.yul\":6094:6100   */\n      dup5\n        /* \"#utility.yul\":6050:6121   */\n      tag_52\n      jump\t// in\n    tag_130:\n        /* \"#utility.yul\":5906:6128   */\n      swap3\n      swap2\n      pop\n      pop\n      jump\t// out\n        /* \"#utility.yul\":6134:6314   */\n    tag_61:\n        /* \"#utility.yul\":6182:6259   */\n      0x4e487b7100000000000000000000000000000000000000000000000000000000\n        /* \"#utility.yul\":6179:6180   */\n      0x00\n        /* \"#utility.yul\":6172:6260   */\n      mstore\n        /* \"#utility.yul\":6279:6283   */\n      0x22\n        /* \"#utility.yul\":6276:6277   */\n      0x04\n        /* \"#utility.yul\":6269:6284   */\n      mstore\n        /* \"#utility.yul\":6303:6307   */\n      0x24\n        /* \"#utility.yul\":6300:6301   */\n      0x00\n        /* \"#utility.yul\":6293:6308   */\n      revert\n        /* \"#utility.yul\":6320:6640   */\n    tag_25:\n        /* \"#utility.yul\":6364:6370   */\n      0x00\n        /* \"#utility.yul\":6401:6402   */\n      0x02\n        /* \"#utility.yul\":6395:6399   */\n      dup3\n        /* \"#utility.yul\":6391:6403   */\n      div\n        /* \"#utility.yul\":6381:6403   */\n      swap1\n      pop\n        /* \"#utility.yul\":6448:6449   */\n      0x01\n        /* \"#utility.yul\":6442:6446   */\n      dup3\n        /* \"#utility.yul\":6438:6450   */\n      and\n        /* \"#utility.yul\":6469:6487   */\n      dup1\n        /* \"#utility.yul\":6459:6540   */\n      tag_133\n      jumpi\n        /* \"#utility.yul\":6525:6529   */\n      0x7f\n        /* \"#utility.yul\":6517:6523   */\n      dup3\n        /* \"#utility.yul\":6513:6530   */\n      and\n        /* \"#utility.yul\":6503:6530   */\n      swap2\n      pop\n        /* \"#utility.yul\":6459:6540   */\n    tag_133:\n        /* \"#utility.yul\":6587:6589   */\n      0x20\n        /* \"#utility.yul\":6579:6585   */\n      dup3\n        /* \"#utility.yul\":6576:6590   */\n      lt\n        /* \"#utility.yul\":6556:6574   */\n      dup2\n        /* \"#utility.yul\":6553:6591   */\n      sub\n        /* \"#utility.yul\":6550:6634   */\n      tag_134\n      jumpi\n        /* \"#utility.yul\":6606:6624   */\n      tag_135\n      tag_61\n      jump\t// in\n    tag_135:\n        /* \"#utility.yul\":6550:6634   */\n    tag_134:\n        /* \"#utility.yul\":6371:6640   */\n      pop\n        /* \"#utility.yul\":6320:6640   */\n      swap2\n      swap1\n      pop\n      jump\t// out\n\n    auxdata: 0xa264697066735822122068b6ceadf2ebc46cacc1e4d4a3cb4d307d29b7c667875862cd1a66ace4f72d5b64736f6c63781c302e382e33312d7072652e312b636f6d6d69742e6235393536366636004d\n}\n",
				"bytecode": {
					"linkReferences": {},
					"object": "6080604052348015600e575f5ffd5b506106288061001c5f395ff3fe608060405234801561000f575f5ffd5b506004361061003f575f3560e01c80632175273e14610043578063344610671461007357806394f0df61146100a8575b5f5ffd5b61005d60048036038101906100589190610323565b6100d8565b60405161006a91906103d1565b60405180910390f35b61008d600480360381019061008891906103f1565b61017d565b60405161009f969594939291906104be565b60405180910390f35b6100c260048036038101906100bd9190610524565b610267565b6040516100cf9190610562565b60405180910390f35b5f602052815f5260405f20602052805f5260405f205f915091505080546100fe906105a8565b80601f016020809104026020016040519081016040528092919081815260200182805461012a906105a8565b80156101755780601f1061014c57610100808354040283529160200191610175565b820191905f5260205f20905b81548152906001019060200180831161015857829003601f168201915b505050505081565b6001602052805f5260405f205f91509050805f0154908060010180546101a2906105a8565b80601f01602080910402602001604051908101604052809291908181526020018280546101ce906105a8565b80156102195780601f106101f057610100808354040283529160200191610219565b820191905f5260205f20905b8154815290600101906020018083116101fc57829003601f168201915b505050505090806002015490806003015490806004015f9054906101000a900473ffffffffffffffffffffffffffffffffffffffff16908060040160149054906101000a900460ff16905086565b6002602052815f5260405f208181548110610280575f80fd5b905f5260205f20015f91509150505481565b5f5ffd5b5f819050919050565b6102a881610296565b81146102b2575f5ffd5b50565b5f813590506102c38161029f565b92915050565b5f73ffffffffffffffffffffffffffffffffffffffff82169050919050565b5f6102f2826102c9565b9050919050565b610302816102e8565b811461030c575f5ffd5b50565b5f8135905061031d816102f9565b92915050565b5f5f6040838503121561033957610338610292565b5b5f610346858286016102b5565b92505060206103578582860161030f565b9150509250929050565b5f81519050919050565b5f82825260208201905092915050565b8281835e5f83830152505050565b5f601f19601f8301169050919050565b5f6103a382610361565b6103ad818561036b565b93506103bd81856020860161037b565b6103c681610389565b840191505092915050565b5f6020820190508181035f8301526103e98184610399565b905092915050565b5f6020828403121561040657610405610292565b5b5f610413848285016102b5565b91505092915050565b61042581610296565b82525050565b5f81519050919050565b5f82825260208201905092915050565b5f61044f8261042b565b6104598185610435565b935061046981856020860161037b565b61047281610389565b840191505092915050565b5f819050919050565b61048f8161047d565b82525050565b61049e816102e8565b82525050565b5f8115159050919050565b6104b8816104a4565b82525050565b5f60c0820190506104d15f83018961041c565b81810360208301526104e38188610445565b90506104f26040830187610486565b6104ff606083018661041c565b61050c6080830185610495565b61051960a08301846104af565b979650505050505050565b5f5f6040838503121561053a57610539610292565b5b5f6105478582860161030f565b9250506020610558858286016102b5565b9150509250929050565b5f6020820190506105755f83018461041c565b92915050565b7f4e487b71000000000000000000000000000000000000000000000000000000005f52602260045260245ffd5b5f60028204905060018216806105bf57607f821691505b6020821081036105d2576105d161057b565b5b5091905056fea264697066735822122068b6ceadf2ebc46cacc1e4d4a3cb4d307d29b7c667875862cd1a66ace4f72d5b64736f6c63781c302e382e33312d7072652e312b636f6d6d69742e6235393536366636004d",
					"opcodes": "PUSH1 0x80 PUSH1 0x40 MSTORE CALLVALUE DUP1 ISZERO PUSH1 0xE JUMPI PUSH0 PUSH0 REVERT JUMPDEST POP PUSH2 0x628 DUP1 PUSH2 0x1C PUSH0 CODECOPY PUSH0 RETURN INVALID PUSH1 0x80 PUSH1 0x40 MSTORE CALLVALUE DUP1 ISZERO PUSH2 0xF JUMPI PUSH0 PUSH0 REVERT JUMPDEST POP PUSH1 0x4 CALLDATASIZE LT PUSH2 0x3F JUMPI PUSH0 CALLDATALOAD PUSH1 0xE0 SHR DUP1 PUSH4 0x2175273E EQ PUSH2 0x43 JUMPI DUP1 PUSH4 0x34461067 EQ PUSH2 0x73 JUMPI DUP1 PUSH4 0x94F0DF61 EQ PUSH2 0xA8 JUMPI JUMPDEST PUSH0 PUSH0 REVERT JUMPDEST PUSH2 0x5D PUSH1 0x4 DUP1 CALLDATASIZE SUB DUP2 ADD SWAP1 PUSH2 0x58 SWAP2 SWAP1 PUSH2 0x323 JUMP JUMPDEST PUSH2 0xD8 JUMP JUMPDEST PUSH1 0x40 MLOAD PUSH2 0x6A SWAP2 SWAP1 PUSH2 0x3D1 JUMP JUMPDEST PUSH1 0x40 MLOAD DUP1 SWAP2 SUB SWAP1 RETURN JUMPDEST PUSH2 0x8D PUSH1 0x4 DUP1 CALLDATASIZE SUB DUP2 ADD SWAP1 PUSH2 0x88 SWAP2 SWAP1 PUSH2 0x3F1 JUMP JUMPDEST PUSH2 0x17D JUMP JUMPDEST PUSH1 0x40 MLOAD PUSH2 0x9F SWAP7 SWAP6 SWAP5 SWAP4 SWAP3 SWAP2 SWAP1 PUSH2 0x4BE JUMP JUMPDEST PUSH1 0x40 MLOAD DUP1 SWAP2 SUB SWAP1 RETURN JUMPDEST PUSH2 0xC2 PUSH1 0x4 DUP1 CALLDATASIZE SUB DUP2 ADD SWAP1 PUSH2 0xBD SWAP2 SWAP1 PUSH2 0x524 JUMP JUMPDEST PUSH2 0x267 JUMP JUMPDEST PUSH1 0x40 MLOAD PUSH2 0xCF SWAP2 SWAP1 PUSH2 0x562 JUMP JUMPDEST PUSH1 0x40 MLOAD DUP1 SWAP2 SUB SWAP1 RETURN JUMPDEST PUSH0 PUSH1 0x20 MSTORE DUP2 PUSH0 MSTORE PUSH1 0x40 PUSH0 KECCAK256 PUSH1 0x20 MSTORE DUP1 PUSH0 MSTORE PUSH1 0x40 PUSH0 KECCAK256 PUSH0 SWAP2 POP SWAP2 POP POP DUP1 SLOAD PUSH2 0xFE SWAP1 PUSH2 0x5A8 JUMP JUMPDEST DUP1 PUSH1 0x1F ADD PUSH1 0x20 DUP1 SWAP2 DIV MUL PUSH1 0x20 ADD PUSH1 0x40 MLOAD SWAP1 DUP2 ADD PUSH1 0x40 MSTORE DUP1 SWAP3 SWAP2 SWAP1 DUP2 DUP2 MSTORE PUSH1 0x20 ADD DUP3 DUP1 SLOAD PUSH2 0x12A SWAP1 PUSH2 0x5A8 JUMP JUMPDEST DUP1 ISZERO PUSH2 0x175 JUMPI DUP1 PUSH1 0x1F LT PUSH2 0x14C JUMPI PUSH2 0x100 DUP1 DUP4 SLOAD DIV MUL DUP4 MSTORE SWAP2 PUSH1 0x20 ADD SWAP2 PUSH2 0x175 JUMP JUMPDEST DUP3 ADD SWAP2 SWAP1 PUSH0 MSTORE PUSH1 0x20 PUSH0 KECCAK256 SWAP1 JUMPDEST DUP2 SLOAD DUP2 MSTORE SWAP1 PUSH1 0x1 ADD SWAP1 PUSH1 0x20 ADD DUP1 DUP4 GT PUSH2 0x158 JUMPI DUP3 SWAP1 SUB PUSH1 0x1F AND DUP3 ADD SWAP2 JUMPDEST POP POP POP POP POP DUP2 JUMP JUMPDEST PUSH1 0x1 PUSH1 0x20 MSTORE DUP1 PUSH0 MSTORE PUSH1 0x40 PUSH0 KECCAK256 PUSH0 SWAP2 POP SWAP1 POP DUP1 PUSH0 ADD SLOAD SWAP1 DUP1 PUSH1 0x1 ADD DUP1 SLOAD PUSH2 0x1A2 SWAP1 PUSH2 0x5A8 JUMP JUMPDEST DUP1 PUSH1 0x1F ADD PUSH1 0x20 DUP1 SWAP2 DIV MUL PUSH1 0x20 ADD PUSH1 0x40 MLOAD SWAP1 DUP2 ADD PUSH1 0x40 MSTORE DUP1 SWAP3 SWAP2 SWAP1 DUP2 DUP2 MSTORE PUSH1 0x20 ADD DUP3 DUP1 SLOAD PUSH2 0x1CE SWAP1 PUSH2 0x5A8 JUMP JUMPDEST DUP1 ISZERO PUSH2 0x219 JUMPI DUP1 PUSH1 0x1F LT PUSH2 0x1F0 JUMPI PUSH2 0x100 DUP1 DUP4 SLOAD DIV MUL DUP4 MSTORE SWAP2 PUSH1 0x20 ADD SWAP2 PUSH2 0x219 JUMP JUMPDEST DUP3 ADD SWAP2 SWAP1 PUSH0 MSTORE PUSH1 0x20 PUSH0 KECCAK256 SWAP1 JUMPDEST DUP2 SLOAD DUP2 MSTORE SWAP1 PUSH1 0x1 ADD SWAP1 PUSH1 0x20 ADD DUP1 DUP4 GT PUSH2 0x1FC JUMPI DUP3 SWAP1 SUB PUSH1 0x1F AND DUP3 ADD SWAP2 JUMPDEST POP POP POP POP POP SWAP1 DUP1 PUSH1 0x2 ADD SLOAD SWAP1 DUP1 PUSH1 0x3 ADD SLOAD SWAP1 DUP1 PUSH1 0x4 ADD PUSH0 SWAP1 SLOAD SWAP1 PUSH2 0x100 EXP SWAP1 DIV PUSH20 0xFFFFFFFFFFFFFFFFFFFFFFFFFFFFFFFFFFFFFFFF AND SWAP1 DUP1 PUSH1 0x4 ADD PUSH1 0x14 SWAP1 SLOAD SWAP1 PUSH2 0x100 EXP SWAP1 DIV PUSH1 0xFF AND SWAP1 POP DUP7 JUMP JUMPDEST PUSH1 0x2 PUSH1 0x20 MSTORE DUP2 PUSH0 MSTORE PUSH1 0x40 PUSH0 KECCAK256 DUP2 DUP2 SLOAD DUP2 LT PUSH2 0x280 JUMPI PUSH0 DUP1 REVERT JUMPDEST SWAP1 PUSH0 MSTORE PUSH1 0x20 PUSH0 KECCAK256 ADD PUSH0 SWAP2 POP SWAP2 POP POP SLOAD DUP2 JUMP JUMPDEST PUSH0 PUSH0 REVERT JUMPDEST PUSH0 DUP2 SWAP1 POP SWAP2 SWAP1 POP JUMP JUMPDEST PUSH2 0x2A8 DUP2 PUSH2 0x296 JUMP JUMPDEST DUP2 EQ PUSH2 0x2B2 JUMPI PUSH0 PUSH0 REVERT JUMPDEST POP JUMP JUMPDEST PUSH0 DUP2 CALLDATALOAD SWAP1 POP PUSH2 0x2C3 DUP2 PUSH2 0x29F JUMP JUMPDEST SWAP3 SWAP2 POP POP JUMP JUMPDEST PUSH0 PUSH20 0xFFFFFFFFFFFFFFFFFFFFFFFFFFFFFFFFFFFFFFFF DUP3 AND SWAP1 POP SWAP2 SWAP1 POP JUMP JUMPDEST PUSH0 PUSH2 0x2F2 DUP3 PUSH2 0x2C9 JUMP JUMPDEST SWAP1 POP SWAP2 SWAP1 POP JUMP JUMPDEST PUSH2 0x302 DUP2 PUSH2 0x2E8 JUMP JUMPDEST DUP2 EQ PUSH2 0x30C JUMPI PUSH0 PUSH0 REVERT JUMPDEST POP JUMP JUMPDEST PUSH0 DUP2 CALLDATALOAD SWAP1 POP PUSH2 0x31D DUP2 PUSH2 0x2F9 JUMP JUMPDEST SWAP3 SWAP2 POP POP JUMP JUMPDEST PUSH0 PUSH0 PUSH1 0x40 DUP4 DUP6 SUB SLT ISZERO PUSH2 0x339 JUMPI PUSH2 0x338 PUSH2 0x292 JUMP JUMPDEST JUMPDEST PUSH0 PUSH2 0x346 DUP6 DUP3 DUP7 ADD PUSH2 0x2B5 JUMP JUMPDEST SWAP3 POP POP PUSH1 0x20 PUSH2 0x357 DUP6 DUP3 DUP7 ADD PUSH2 0x30F JUMP JUMPDEST SWAP2 POP POP SWAP3 POP SWAP3 SWAP1 POP JUMP JUMPDEST PUSH0 DUP2 MLOAD SWAP1 POP SWAP2 SWAP1 POP JUMP JUMPDEST PUSH0 DUP3 DUP3 MSTORE PUSH1 0x20 DUP3 ADD SWAP1 POP SWAP3 SWAP2 POP POP JUMP JUMPDEST DUP3 DUP2 DUP4 MCOPY PUSH0 DUP4 DUP4 ADD MSTORE POP POP POP JUMP JUMPDEST PUSH0 PUSH1 0x1F NOT PUSH1 0x1F DUP4 ADD AND SWAP1 POP SWAP2 SWAP1 POP JUMP JUMPDEST PUSH0 PUSH2 0x3A3 DUP3 PUSH2 0x361 JUMP JUMPDEST PUSH2 0x3AD DUP2 DUP6 PUSH2 0x36B JUMP JUMPDEST SWAP4 POP PUSH2 0x3BD DUP2 DUP6 PUSH1 0x20 DUP7 ADD PUSH2 0x37B JUMP JUMPDEST PUSH2 0x3C6 DUP2 PUSH2 0x389 JUMP JUMPDEST DUP5 ADD SWAP2 POP POP SWAP3 SWAP2 POP POP JUMP JUMPDEST PUSH0 PUSH1 0x20 DUP3 ADD SWAP1 POP DUP2 DUP2 SUB PUSH0 DUP4 ADD MSTORE PUSH2 0x3E9 DUP2 DUP5 PUSH2 0x399 JUMP JUMPDEST SWAP1 POP SWAP3 SWAP2 POP POP JUMP JUMPDEST PUSH0 PUSH1 0x20 DUP3 DUP5 SUB SLT ISZERO PUSH2 0x406 JUMPI PUSH2 0x405 PUSH2 0x292 JUMP JUMPDEST JUMPDEST PUSH0 PUSH2 0x413 DUP5 DUP3 DUP6 ADD PUSH2 0x2B5 JUMP JUMPDEST SWAP2 POP POP SWAP3 SWAP2 POP POP JUMP JUMPDEST PUSH2 0x425 DUP2 PUSH2 0x296 JUMP JUMPDEST DUP3 MSTORE POP POP JUMP JUMPDEST PUSH0 DUP2 MLOAD SWAP1 POP SWAP2 SWAP1 POP JUMP JUMPDEST PUSH0 DUP3 DUP3 MSTORE PUSH1 0x20 DUP3 ADD SWAP1 POP SWAP3 SWAP2 POP POP JUMP JUMPDEST PUSH0 PUSH2 0x44F DUP3 PUSH2 0x42B JUMP JUMPDEST PUSH2 0x459 DUP2 DUP6 PUSH2 0x435 JUMP JUMPDEST SWAP4 POP PUSH2 0x469 DUP2 DUP6 PUSH1 0x20 DUP7 ADD PUSH2 0x37B JUMP JUMPDEST PUSH2 0x472 DUP2 PUSH2 0x389 JUMP JUMPDEST DUP5 ADD SWAP2 POP POP SWAP3 SWAP2 POP POP JUMP JUMPDEST PUSH0 DUP2 SWAP1 POP SWAP2 SWAP1 POP JUMP JUMPDEST PUSH2 0x48F DUP2 PUSH2 0x47D JUMP JUMPDEST DUP3 MSTORE POP POP JUMP JUMPDEST PUSH2 0x49E DUP2 PUSH2 0x2E8 JUMP JUMPDEST DUP3 MSTORE POP POP JUMP JUMPDEST PUSH0 DUP2 ISZERO ISZERO SWAP1 POP SWAP2 SWAP1 POP JUMP JUMPDEST PUSH2 0x4B8 DUP2 PUSH2 0x4A4 JUMP JUMPDEST DUP3 MSTORE POP POP JUMP JUMPDEST PUSH0 PUSH1 0xC0 DUP3 ADD SWAP1 POP PUSH2 0x4D1 PUSH0 DUP4 ADD DUP10 PUSH2 0x41C JUMP JUMPDEST DUP2 DUP2 SUB PUSH1 0x20 DUP4 ADD MSTORE PUSH2 0x4E3 DUP2 DUP9 PUSH2 0x445 JUMP JUMPDEST SWAP1 POP PUSH2 0x4F2 PUSH1 0x40 DUP4 ADD DUP8 PUSH2 0x486 JUMP JUMPDEST PUSH2 0x4FF PUSH1 0x60 DUP4 ADD DUP7 PUSH2 0x41C JUMP JUMPDEST PUSH2 0x50C PUSH1 0x80 DUP4 ADD DUP6 PUSH2 0x495 JUMP JUMPDEST PUSH2 0x519 PUSH1 0xA0 DUP4 ADD DUP5 PUSH2 0x4AF JUMP JUMPDEST SWAP8 SWAP7 POP POP POP POP POP POP POP JUMP JUMPDEST PUSH0 PUSH0 PUSH1 0x40 DUP4 DUP6 SUB SLT ISZERO PUSH2 0x53A JUMPI PUSH2 0x539 PUSH2 0x292 JUMP JUMPDEST JUMPDEST PUSH0 PUSH2 0x547 DUP6 DUP3 DUP7 ADD PUSH2 0x30F JUMP JUMPDEST SWAP3 POP POP PUSH1 0x20 PUSH2 0x558 DUP6 DUP3 DUP7 ADD PUSH2 0x2B5 JUMP JUMPDEST SWAP2 POP POP SWAP3 POP SWAP3 SWAP1 POP JUMP JUMPDEST PUSH0 PUSH1 0x20 DUP3 ADD SWAP1 POP PUSH2 0x575 PUSH0 DUP4 ADD DUP5 PUSH2 0x41C JUMP JUMPDEST SWAP3 SWAP2 POP POP JUMP JUMPDEST PUSH32 0x4E487B7100000000000000000000000000000000000000000000000000000000 PUSH0 MSTORE PUSH1 0x22 PUSH1 0x4 MSTORE PUSH1 0x24 PUSH0 REVERT JUMPDEST PUSH0 PUSH1 0x2 DUP3 DIV SWAP1 POP PUSH1 0x1 DUP3 AND DUP1 PUSH2 0x5BF JUMPI PUSH1 0x7F DUP3 AND SWAP2 POP JUMPDEST PUSH1 0x20 DUP3 LT DUP2 SUB PUSH2 0x5D2 JUMPI PUSH2 0x5D1 PUSH2 0x57B JUMP JUMPDEST JUMPDEST POP SWAP2 SWAP1 POP JUMP INVALID LOG2 PUSH5 0x6970667358 0x22 SLT KECCAK256 PUSH9 0xB6CEADF2EBC46CACC1 RETF 0xD4 LOG3 0xCB 0x4D ADDRESS PUSH30 0x29B7C667875862CD1A66ACE4F72D5B64736F6C63781C302E382E33312D70 PUSH19 0x652E312B636F6D6D69742E6235393536366636 STOP 0x4D "
				},
				"gasEstimates": {
					"creation": {
						"codeDepositCost": "315200",
						"executionCost": "353",
						"totalCost": "315553"
					},
					"external": {
						"patientRecords(address,uint256)": "infinite",
						"providerEncryptedKeys(uint256,address)": "infinite",
						"records(uint256)": "infinite"
					}
				},
				"methodIdentifiers": {
					"patientRecords(address,uint256)": "94f0df61",
					"providerEncryptedKeys(uint256,address)": "2175273e",
					"records(uint256)": "34461067"
				}
			},
			"storageLayout": {
				"storage": [
					{
						"astId": 20,
						"contract": "hospital.sol:PatientMedicalRecords",
						"label": "providerEncryptedKeys",
						"offset": 0,
						"slot": "0",
						"type": "t_mapping(t_uint256,t_mapping(t_address,t_bytes_storage))"
					},
					{
						"astId": 25,
						"contract": "hospital.sol:PatientMedicalRecords",
						"label": "records",
						"offset": 0,
						"slot": "1",
						"type": "t_mapping(t_uint256,t_struct(Record)14_storage)"
					},
					{
						"astId": 30,
						"contract": "hospital.sol:PatientMedicalRecords",
						"label": "patientRecords",
						"offset": 0,
						"slot": "2",
						"type": "t_mapping(t_address,t_array(t_uint256)dyn_storage)"
					},
					{
						"astId": 32,
						"contract": "hospital.sol:PatientMedicalRecords",
						"label": "_recordCounter",
						"offset": 0,
						"slot": "3",
						"type": "t_uint256"
					}
				],
				"types": {
					"t_address": {
						"encoding": "inplace",
						"label": "address",
						"numberOfBytes": "20"
					},
					"t_array(t_uint256)dyn_storage": {
						"base": "t_uint256",
						"encoding": "dynamic_array",
						"label": "uint256[]",
						"numberOfBytes": "32"
					},
					"t_bool": {
						"encoding": "inplace",
						"label": "bool",
						"numberOfBytes": "1"
					},
					"t_bytes32": {
						"encoding": "inplace",
						"label": "bytes32",
						"numberOfBytes": "32"
					},
					"t_bytes_storage": {
						"encoding": "bytes",
						"label": "bytes",
						"numberOfBytes": "32"
					},
					"t_mapping(t_address,t_array(t_uint256)dyn_storage)": {
						"encoding": "mapping",
						"key": "t_address",
						"label": "mapping(address => uint256[])",
						"numberOfBytes": "32",
						"value": "t_array(t_uint256)dyn_storage"
					},
					"t_mapping(t_address,t_bytes_storage)": {
						"encoding": "mapping",
						"key": "t_address",
						"label": "mapping(address => bytes)",
						"numberOfBytes": "32",
						"value": "t_bytes_storage"
					},
					"t_mapping(t_uint256,t_mapping(t_address,t_bytes_storage))": {
						"encoding": "mapping",
						"key": "t_uint256",
						"label": "mapping(uint256 => mapping(address => bytes))",
						"numberOfBytes": "32",
						"value": "t_mapping(t_address,t_bytes_storage)"
					},
					"t_mapping(t_uint256,t_struct(Record)14_storage)": {
						"encoding": "mapping",
						"key": "t_uint256",
						"label": "mapping(uint256 => struct PatientMedicalRecords.Record)",
						"numberOfBytes": "32",
						"value": "t_struct(Record)14_storage"
					},
					"t_string_storage": {
						"encoding": "bytes",
						"label": "string",
						"numberOfBytes": "32"
					},
					"t_struct(Record)14_storage": {
						"encoding": "inplace",
						"label": "struct PatientMedicalRecords.Record",
						"members": [
							{
								"astId": 3,
								"contract": "hospital.sol:PatientMedicalRecords",
								"label": "id",
								"offset": 0,
								"slot": "0",
								"type": "t_uint256"
							},
							{
								"astId": 5,
								"contract": "hospital.sol:PatientMedicalRecords",
								"label": "cid",
								"offset": 0,
								"slot": "1",
								"type": "t_string_storage"
							},
							{
								"astId": 7,
								"contract": "hospital.sol:PatientMedicalRecords",
								"label": "contentHash",
								"offset": 0,
								"slot": "2",
								"type": "t_bytes32"
							},
							{
								"astId": 9,
								"contract": "hospital.sol:PatientMedicalRecords",
								"label": "timestamp",
								"offset": 0,
								"slot": "3",
								"type": "t_uint256"
							},
							{
								"astId": 11,
								"contract": "hospital.sol:PatientMedicalRecords",
								"label": "creator",
								"offset": 0,
								"slot": "4",
								"type": "t_address"
							},
							{
								"astId": 13,
								"contract": "hospital.sol:PatientMedicalRecords",
								"label": "exists",
								"offset": 20,
								"slot": "4",
								"type": "t_bool"
							}
						],
						"numberOfBytes": "160"
					},
					"t_uint256": {
						"encoding": "inplace",
						"label": "uint256",
						"numberOfBytes": "32"
					}
				}
			},
			"userdoc": {
				"kind": "user",
				"methods": {},
				"version": 1
			}
		}
	}
}